{
  "_format": "hh-sol-artifact-1",
  "contractName": "MyERC721",
  "sourceName": "contracts/MyERC721.sol",
  "abi": [
    {
      "inputs": [
        {
          "internalType": "address",
          "name": "initialOwner",
          "type": "address"
        },
        {
          "internalType": "contract MyERC20",
          "name": "_myERC20Token",
          "type": "address"
        }
      ],
      "stateMutability": "nonpayable",
      "type": "constructor"
    },
    {
      "inputs": [],
      "name": "ERC721EnumerableForbiddenBatchMint",
      "type": "error"
    },
    {
      "inputs": [
        {
          "internalType": "address",
          "name": "sender",
          "type": "address"
        },
        {
          "internalType": "uint256",
          "name": "tokenId",
          "type": "uint256"
        },
        {
          "internalType": "address",
          "name": "owner",
          "type": "address"
        }
      ],
      "name": "ERC721IncorrectOwner",
      "type": "error"
    },
    {
      "inputs": [
        {
          "internalType": "address",
          "name": "operator",
          "type": "address"
        },
        {
          "internalType": "uint256",
          "name": "tokenId",
          "type": "uint256"
        }
      ],
      "name": "ERC721InsufficientApproval",
      "type": "error"
    },
    {
      "inputs": [
        {
          "internalType": "address",
          "name": "approver",
          "type": "address"
        }
      ],
      "name": "ERC721InvalidApprover",
      "type": "error"
    },
    {
      "inputs": [
        {
          "internalType": "address",
          "name": "operator",
          "type": "address"
        }
      ],
      "name": "ERC721InvalidOperator",
      "type": "error"
    },
    {
      "inputs": [
        {
          "internalType": "address",
          "name": "owner",
          "type": "address"
        }
      ],
      "name": "ERC721InvalidOwner",
      "type": "error"
    },
    {
      "inputs": [
        {
          "internalType": "address",
          "name": "receiver",
          "type": "address"
        }
      ],
      "name": "ERC721InvalidReceiver",
      "type": "error"
    },
    {
      "inputs": [
        {
          "internalType": "address",
          "name": "sender",
          "type": "address"
        }
      ],
      "name": "ERC721InvalidSender",
      "type": "error"
    },
    {
      "inputs": [
        {
          "internalType": "uint256",
          "name": "tokenId",
          "type": "uint256"
        }
      ],
      "name": "ERC721NonexistentToken",
      "type": "error"
    },
    {
      "inputs": [
        {
          "internalType": "address",
          "name": "owner",
          "type": "address"
        },
        {
          "internalType": "uint256",
          "name": "index",
          "type": "uint256"
        }
      ],
      "name": "ERC721OutOfBoundsIndex",
      "type": "error"
    },
    {
      "inputs": [
        {
          "internalType": "address",
          "name": "owner",
          "type": "address"
        }
      ],
      "name": "OwnableInvalidOwner",
      "type": "error"
    },
    {
      "inputs": [
        {
          "internalType": "address",
          "name": "account",
          "type": "address"
        }
      ],
      "name": "OwnableUnauthorizedAccount",
      "type": "error"
    },
    {
      "anonymous": false,
      "inputs": [
        {
          "indexed": true,
          "internalType": "address",
          "name": "owner",
          "type": "address"
        },
        {
          "indexed": true,
          "internalType": "address",
          "name": "approved",
          "type": "address"
        },
        {
          "indexed": true,
          "internalType": "uint256",
          "name": "tokenId",
          "type": "uint256"
        }
      ],
      "name": "Approval",
      "type": "event"
    },
    {
      "anonymous": false,
      "inputs": [
        {
          "indexed": true,
          "internalType": "address",
          "name": "owner",
          "type": "address"
        },
        {
          "indexed": true,
          "internalType": "address",
          "name": "operator",
          "type": "address"
        },
        {
          "indexed": false,
          "internalType": "bool",
          "name": "approved",
          "type": "bool"
        }
      ],
      "name": "ApprovalForAll",
      "type": "event"
    },
    {
      "anonymous": false,
      "inputs": [
        {
          "indexed": true,
          "internalType": "address",
          "name": "previousOwner",
          "type": "address"
        },
        {
          "indexed": true,
          "internalType": "address",
          "name": "newOwner",
          "type": "address"
        }
      ],
      "name": "OwnershipTransferred",
      "type": "event"
    },
    {
      "anonymous": false,
      "inputs": [
        {
          "indexed": true,
          "internalType": "address",
          "name": "from",
          "type": "address"
        },
        {
          "indexed": true,
          "internalType": "address",
          "name": "to",
          "type": "address"
        },
        {
          "indexed": true,
          "internalType": "uint256",
          "name": "tokenId",
          "type": "uint256"
        }
      ],
      "name": "Transfer",
      "type": "event"
    },
    {
      "inputs": [],
      "name": "TOKENS_PER_DAY",
      "outputs": [
        {
          "internalType": "uint256",
          "name": "",
          "type": "uint256"
        }
      ],
      "stateMutability": "view",
      "type": "function"
    },
    {
      "inputs": [
        {
          "internalType": "address",
          "name": "to",
          "type": "address"
        },
        {
          "internalType": "uint256",
          "name": "tokenId",
          "type": "uint256"
        }
      ],
      "name": "approve",
      "outputs": [],
      "stateMutability": "nonpayable",
      "type": "function"
    },
    {
      "inputs": [
        {
          "internalType": "address",
          "name": "owner",
          "type": "address"
        }
      ],
      "name": "balanceOf",
      "outputs": [
        {
          "internalType": "uint256",
          "name": "",
          "type": "uint256"
        }
      ],
      "stateMutability": "view",
      "type": "function"
    },
    {
      "inputs": [
        {
          "internalType": "uint256",
          "name": "tokenId",
          "type": "uint256"
        }
      ],
      "name": "claimTokens",
      "outputs": [],
      "stateMutability": "nonpayable",
      "type": "function"
    },
    {
      "inputs": [
        {
          "internalType": "uint256",
          "name": "tokenId",
          "type": "uint256"
        }
      ],
      "name": "getApproved",
      "outputs": [
        {
          "internalType": "address",
          "name": "",
          "type": "address"
        }
      ],
      "stateMutability": "view",
      "type": "function"
    },
    {
      "inputs": [
        {
          "internalType": "address",
          "name": "owner",
          "type": "address"
        },
        {
          "internalType": "address",
          "name": "operator",
          "type": "address"
        }
      ],
      "name": "isApprovedForAll",
      "outputs": [
        {
          "internalType": "bool",
          "name": "",
          "type": "bool"
        }
      ],
      "stateMutability": "view",
      "type": "function"
    },
    {
      "inputs": [
        {
          "internalType": "address",
          "name": "account",
          "type": "address"
        }
      ],
      "name": "mint",
      "outputs": [],
      "stateMutability": "nonpayable",
      "type": "function"
    },
    {
      "inputs": [],
      "name": "name",
      "outputs": [
        {
          "internalType": "string",
          "name": "",
          "type": "string"
        }
      ],
      "stateMutability": "view",
      "type": "function"
    },
    {
      "inputs": [],
      "name": "owner",
      "outputs": [
        {
          "internalType": "address",
          "name": "",
          "type": "address"
        }
      ],
      "stateMutability": "view",
      "type": "function"
    },
    {
      "inputs": [
        {
          "internalType": "uint256",
          "name": "tokenId",
          "type": "uint256"
        }
      ],
      "name": "ownerOf",
      "outputs": [
        {
          "internalType": "address",
          "name": "",
          "type": "address"
        }
      ],
      "stateMutability": "view",
      "type": "function"
    },
    {
      "inputs": [],
      "name": "renounceOwnership",
      "outputs": [],
      "stateMutability": "nonpayable",
      "type": "function"
    },
    {
      "inputs": [
        {
          "internalType": "address",
          "name": "from",
          "type": "address"
        },
        {
          "internalType": "address",
          "name": "to",
          "type": "address"
        },
        {
          "internalType": "uint256",
          "name": "tokenId",
          "type": "uint256"
        }
      ],
      "name": "safeTransferFrom",
      "outputs": [],
      "stateMutability": "nonpayable",
      "type": "function"
    },
    {
      "inputs": [
        {
          "internalType": "address",
          "name": "from",
          "type": "address"
        },
        {
          "internalType": "address",
          "name": "to",
          "type": "address"
        },
        {
          "internalType": "uint256",
          "name": "tokenId",
          "type": "uint256"
        },
        {
          "internalType": "bytes",
          "name": "data",
          "type": "bytes"
        }
      ],
      "name": "safeTransferFrom",
      "outputs": [],
      "stateMutability": "nonpayable",
      "type": "function"
    },
    {
      "inputs": [
        {
          "internalType": "address",
          "name": "operator",
          "type": "address"
        },
        {
          "internalType": "bool",
          "name": "approved",
          "type": "bool"
        }
      ],
      "name": "setApprovalForAll",
      "outputs": [],
      "stateMutability": "nonpayable",
      "type": "function"
    },
    {
      "inputs": [
        {
          "internalType": "string",
          "name": "baseURI_",
          "type": "string"
        }
      ],
      "name": "setBaseURI",
      "outputs": [],
      "stateMutability": "nonpayable",
      "type": "function"
    },
    {
      "inputs": [
        {
          "internalType": "bytes4",
          "name": "interfaceId",
          "type": "bytes4"
        }
      ],
      "name": "supportsInterface",
      "outputs": [
        {
          "internalType": "bool",
          "name": "",
          "type": "bool"
        }
      ],
      "stateMutability": "view",
      "type": "function"
    },
    {
      "inputs": [],
      "name": "symbol",
      "outputs": [
        {
          "internalType": "string",
          "name": "",
          "type": "string"
        }
      ],
      "stateMutability": "view",
      "type": "function"
    },
    {
      "inputs": [
        {
          "internalType": "uint256",
          "name": "index",
          "type": "uint256"
        }
      ],
      "name": "tokenByIndex",
      "outputs": [
        {
          "internalType": "uint256",
          "name": "",
          "type": "uint256"
        }
      ],
      "stateMutability": "view",
      "type": "function"
    },
    {
      "inputs": [
        {
          "internalType": "address",
          "name": "owner",
          "type": "address"
        },
        {
          "internalType": "uint256",
          "name": "index",
          "type": "uint256"
        }
      ],
      "name": "tokenOfOwnerByIndex",
      "outputs": [
        {
          "internalType": "uint256",
          "name": "",
          "type": "uint256"
        }
      ],
      "stateMutability": "view",
      "type": "function"
    },
    {
      "inputs": [
        {
          "internalType": "uint256",
          "name": "tokenId",
          "type": "uint256"
        }
      ],
      "name": "tokenURI",
      "outputs": [
        {
          "internalType": "string",
          "name": "",
          "type": "string"
        }
      ],
      "stateMutability": "view",
      "type": "function"
    },
    {
      "inputs": [],
      "name": "totalSupply",
      "outputs": [
        {
          "internalType": "uint256",
          "name": "",
          "type": "uint256"
        }
      ],
      "stateMutability": "view",
      "type": "function"
    },
    {
      "inputs": [
        {
          "internalType": "address",
          "name": "from",
          "type": "address"
        },
        {
          "internalType": "address",
          "name": "to",
          "type": "address"
        },
        {
          "internalType": "uint256",
          "name": "tokenId",
          "type": "uint256"
        }
      ],
      "name": "transferFrom",
      "outputs": [],
      "stateMutability": "nonpayable",
      "type": "function"
    },
    {
      "inputs": [
        {
          "internalType": "address",
          "name": "newOwner",
          "type": "address"
        }
      ],
      "name": "transferOwnership",
      "outputs": [],
      "stateMutability": "nonpayable",
      "type": "function"
    }
  ],
  "bytecode": "0x60806040523480156200001157600080fd5b506040516200388c3803806200388c83398181016040528101906200003791906200030f565b816040518060400160405280600681526020017f4d795472656500000000000000000000000000000000000000000000000000008152506040518060400160405280600481526020017f54524545000000000000000000000000000000000000000000000000000000008152508160009081620000b59190620005d0565b508060019081620000c79190620005d0565b505050600073ffffffffffffffffffffffffffffffffffffffff168173ffffffffffffffffffffffffffffffffffffffff16036200013f5760006040517f1e4fbdf7000000000000000000000000000000000000000000000000000000008152600401620001369190620006c8565b60405180910390fd5b62000150816200019a60201b60201c565b5080600b60006101000a81548173ffffffffffffffffffffffffffffffffffffffff021916908373ffffffffffffffffffffffffffffffffffffffff1602179055505050620006e5565b6000600a60009054906101000a900473ffffffffffffffffffffffffffffffffffffffff16905081600a60006101000a81548173ffffffffffffffffffffffffffffffffffffffff021916908373ffffffffffffffffffffffffffffffffffffffff1602179055508173ffffffffffffffffffffffffffffffffffffffff168173ffffffffffffffffffffffffffffffffffffffff167f8be0079c531659141344cd1fd0a4f28419497f9722a3daafe3b4186f6b6457e060405160405180910390a35050565b600080fd5b600073ffffffffffffffffffffffffffffffffffffffff82169050919050565b6000620002928262000265565b9050919050565b620002a48162000285565b8114620002b057600080fd5b50565b600081519050620002c48162000299565b92915050565b6000620002d78262000285565b9050919050565b620002e981620002ca565b8114620002f557600080fd5b50565b6000815190506200030981620002de565b92915050565b6000806040838503121562000329576200032862000260565b5b60006200033985828601620002b3565b92505060206200034c85828601620002f8565b9150509250929050565b600081519050919050565b7f4e487b7100000000000000000000000000000000000000000000000000000000600052604160045260246000fd5b7f4e487b7100000000000000000000000000000000000000000000000000000000600052602260045260246000fd5b60006002820490506001821680620003d857607f821691505b602082108103620003ee57620003ed62000390565b5b50919050565b60008190508160005260206000209050919050565b60006020601f8301049050919050565b600082821b905092915050565b600060088302620004587fffffffffffffffffffffffffffffffffffffffffffffffffffffffffffffffff8262000419565b62000464868362000419565b95508019841693508086168417925050509392505050565b6000819050919050565b6000819050919050565b6000620004b1620004ab620004a5846200047c565b62000486565b6200047c565b9050919050565b6000819050919050565b620004cd8362000490565b620004e5620004dc82620004b8565b84845462000426565b825550505050565b600090565b620004fc620004ed565b62000509818484620004c2565b505050565b5b81811015620005315762000525600082620004f2565b6001810190506200050f565b5050565b601f82111562000580576200054a81620003f4565b620005558462000409565b8101602085101562000565578190505b6200057d620005748562000409565b8301826200050e565b50505b505050565b600082821c905092915050565b6000620005a56000198460080262000585565b1980831691505092915050565b6000620005c0838362000592565b9150826002028217905092915050565b620005db8262000356565b67ffffffffffffffff811115620005f757620005f662000361565b5b620006038254620003bf565b6200061082828562000535565b600060209050601f83116001811462000648576000841562000633578287015190505b6200063f8582620005b2565b865550620006af565b601f1984166200065886620003f4565b60005b8281101562000682578489015182556001820191506020850194506020810190506200065b565b86831015620006a257848901516200069e601f89168262000592565b8355505b6001600288020188555050505b505050505050565b620006c28162000285565b82525050565b6000602082019050620006df6000830184620006b7565b92915050565b61319780620006f56000396000f3fe608060405234801561001057600080fd5b506004361061014d5760003560e01c80636352211e116100c357806395d89b411161007c57806395d89b411461039c578063a22cb465146103ba578063b88d4fde146103d6578063c87b56dd146103f2578063e985e9c514610422578063f2fde38b146104525761014d565b80636352211e146102da5780636678fee31461030a5780636a6278421461032857806370a0823114610344578063715018a6146103745780638da5cb5b1461037e5761014d565b806323b872dd1161011557806323b872dd1461020a5780632f745c591461022657806342842e0e1461025657806346e04a2f146102725780634f6ccce71461028e57806355f804b3146102be5761014d565b806301ffc9a71461015257806306fdde0314610182578063081812fc146101a0578063095ea7b3146101d057806318160ddd146101ec575b600080fd5b61016c60048036038101906101679190612219565b61046e565b6040516101799190612261565b60405180910390f35b61018a6104e8565b604051610197919061230c565b60405180910390f35b6101ba60048036038101906101b59190612364565b61057a565b6040516101c791906123d2565b60405180910390f35b6101ea60048036038101906101e59190612419565b610596565b005b6101f46105ac565b6040516102019190612468565b60405180910390f35b610224600480360381019061021f9190612483565b6105b9565b005b610240600480360381019061023b9190612419565b6106bb565b60405161024d9190612468565b60405180910390f35b610270600480360381019061026b9190612483565b610764565b005b61028c60048036038101906102879190612364565b610784565b005b6102a860048036038101906102a39190612364565b610933565b6040516102b59190612468565b60405180910390f35b6102d860048036038101906102d3919061260b565b6109a9565b005b6102f460048036038101906102ef9190612364565b6109c4565b60405161030191906123d2565b60405180910390f35b6103126109d6565b60405161031f9190612468565b60405180910390f35b610342600480360381019061033d9190612654565b6109e3565b005b61035e60048036038101906103599190612654565b610a2f565b60405161036b9190612468565b60405180910390f35b61037c610ae9565b005b610386610afd565b60405161039391906123d2565b60405180910390f35b6103a4610b27565b6040516103b1919061230c565b60405180910390f35b6103d460048036038101906103cf91906126ad565b610bb9565b005b6103f060048036038101906103eb919061278e565b610bcf565b005b61040c60048036038101906104079190612364565b610bec565b604051610419919061230c565b60405180910390f35b61043c60048036038101906104379190612811565b610d08565b6040516104499190612261565b60405180910390f35b61046c60048036038101906104679190612654565b610d9c565b005b60007f780e9d63000000000000000000000000000000000000000000000000000000007bffffffffffffffffffffffffffffffffffffffffffffffffffffffff1916827bffffffffffffffffffffffffffffffffffffffffffffffffffffffff191614806104e157506104e082610e22565b5b9050919050565b6060600080546104f790612880565b80601f016020809104026020016040519081016040528092919081815260200182805461052390612880565b80156105705780601f1061054557610100808354040283529160200191610570565b820191906000526020600020905b81548152906001019060200180831161055357829003601f168201915b5050505050905090565b600061058582610f04565b5061058f82610f8c565b9050919050565b6105a882826105a3610fc9565b610fd1565b5050565b6000600880549050905090565b600073ffffffffffffffffffffffffffffffffffffffff168273ffffffffffffffffffffffffffffffffffffffff160361062b5760006040517f64a0ae9200000000000000000000000000000000000000000000000000000000815260040161062291906123d2565b60405180910390fd5b600061063f838361063a610fc9565b610fe3565b90508373ffffffffffffffffffffffffffffffffffffffff168173ffffffffffffffffffffffffffffffffffffffff16146106b5578382826040517f64283d7b0000000000000000000000000000000000000000000000000000000081526004016106ac939291906128b1565b60405180910390fd5b50505050565b60006106c683610a2f565b821061070b5782826040517fa57d13dc0000000000000000000000000000000000000000000000000000000081526004016107029291906128e8565b60405180910390fd5b600660008473ffffffffffffffffffffffffffffffffffffffff1673ffffffffffffffffffffffffffffffffffffffff168152602001908152602001600020600083815260200190815260200160002054905092915050565b61077f83838360405180602001604052806000815250610bcf565b505050565b3373ffffffffffffffffffffffffffffffffffffffff166107a4826109c4565b73ffffffffffffffffffffffffffffffffffffffff16146107fa576040517f08c379a00000000000000000000000000000000000000000000000000000000081526004016107f19061295d565b60405180910390fd5b6000600e6000838152602001908152602001600020544261081b91906129ac565b90506000620151806803b6a0e3124a4200008361083891906129e0565b6108429190612a51565b905060008111610887576040517f08c379a000000000000000000000000000000000000000000000000000000000815260040161087e90612ace565b60405180910390fd5b600b60009054906101000a900473ffffffffffffffffffffffffffffffffffffffff1673ffffffffffffffffffffffffffffffffffffffff166340c10f1933836040518363ffffffff1660e01b81526004016108e49291906128e8565b600060405180830381600087803b1580156108fe57600080fd5b505af1158015610912573d6000803e3d6000fd5b5050505042600e600085815260200190815260200160002081905550505050565b600061093d6105ac565b8210610983576000826040517fa57d13dc00000000000000000000000000000000000000000000000000000000815260040161097a9291906128e8565b60405180910390fd5b6008828154811061099757610996612aee565b5b90600052602060002001549050919050565b6109b1611100565b80600d90816109c09190612cc9565b5050565b60006109cf82610f04565b9050919050565b6803b6a0e3124a42000081565b6109eb611100565b60006109f56105ac565b9050610a018282611187565b610a1381610a0e83611280565b6112b4565b42600e6000838152602001908152602001600020819055505050565b60008073ffffffffffffffffffffffffffffffffffffffff168273ffffffffffffffffffffffffffffffffffffffff1603610aa25760006040517f89c62b64000000000000000000000000000000000000000000000000000000008152600401610a9991906123d2565b60405180910390fd5b600360008373ffffffffffffffffffffffffffffffffffffffff1673ffffffffffffffffffffffffffffffffffffffff168152602001908152602001600020549050919050565b610af1611100565b610afb6000611350565b565b6000600a60009054906101000a900473ffffffffffffffffffffffffffffffffffffffff16905090565b606060018054610b3690612880565b80601f0160208091040260200160405190810160405280929190818152602001828054610b6290612880565b8015610baf5780601f10610b8457610100808354040283529160200191610baf565b820191906000526020600020905b815481529060010190602001808311610b9257829003601f168201915b5050505050905090565b610bcb610bc4610fc9565b8383611416565b5050565b610bda8484846105b9565b610be684848484611585565b50505050565b6060600073ffffffffffffffffffffffffffffffffffffffff16610c0f836109c4565b73ffffffffffffffffffffffffffffffffffffffff1603610c65576040517f08c379a0000000000000000000000000000000000000000000000000000000008152600401610c5c90612e0d565b60405180910390fd5b600c60008381526020019081526020016000208054610c8390612880565b80601f0160208091040260200160405190810160405280929190818152602001828054610caf90612880565b8015610cfc5780601f10610cd157610100808354040283529160200191610cfc565b820191906000526020600020905b815481529060010190602001808311610cdf57829003601f168201915b50505050509050919050565b6000600560008473ffffffffffffffffffffffffffffffffffffffff1673ffffffffffffffffffffffffffffffffffffffff16815260200190815260200160002060008373ffffffffffffffffffffffffffffffffffffffff1673ffffffffffffffffffffffffffffffffffffffff16815260200190815260200160002060009054906101000a900460ff16905092915050565b610da4611100565b600073ffffffffffffffffffffffffffffffffffffffff168173ffffffffffffffffffffffffffffffffffffffff1603610e165760006040517f1e4fbdf7000000000000000000000000000000000000000000000000000000008152600401610e0d91906123d2565b60405180910390fd5b610e1f81611350565b50565b60007f80ac58cd000000000000000000000000000000000000000000000000000000007bffffffffffffffffffffffffffffffffffffffffffffffffffffffff1916827bffffffffffffffffffffffffffffffffffffffffffffffffffffffff19161480610eed57507f5b5e139f000000000000000000000000000000000000000000000000000000007bffffffffffffffffffffffffffffffffffffffffffffffffffffffff1916827bffffffffffffffffffffffffffffffffffffffffffffffffffffffff1916145b80610efd5750610efc8261173c565b5b9050919050565b600080610f10836117a6565b9050600073ffffffffffffffffffffffffffffffffffffffff168173ffffffffffffffffffffffffffffffffffffffff1603610f8357826040517f7e273289000000000000000000000000000000000000000000000000000000008152600401610f7a9190612468565b60405180910390fd5b80915050919050565b60006004600083815260200190815260200160002060009054906101000a900473ffffffffffffffffffffffffffffffffffffffff169050919050565b600033905090565b610fde83838360016117e3565b505050565b600080610ff18585856119a8565b9050600073ffffffffffffffffffffffffffffffffffffffff168173ffffffffffffffffffffffffffffffffffffffff16036110355761103084611bc2565b611074565b8473ffffffffffffffffffffffffffffffffffffffff168173ffffffffffffffffffffffffffffffffffffffff1614611073576110728185611c0b565b5b5b600073ffffffffffffffffffffffffffffffffffffffff168573ffffffffffffffffffffffffffffffffffffffff16036110b6576110b184611d6c565b6110f5565b8473ffffffffffffffffffffffffffffffffffffffff168173ffffffffffffffffffffffffffffffffffffffff16146110f4576110f38585611e3d565b5b5b809150509392505050565b611108610fc9565b73ffffffffffffffffffffffffffffffffffffffff16611126610afd565b73ffffffffffffffffffffffffffffffffffffffff161461118557611149610fc9565b6040517f118cdaa700000000000000000000000000000000000000000000000000000000815260040161117c91906123d2565b60405180910390fd5b565b600073ffffffffffffffffffffffffffffffffffffffff168273ffffffffffffffffffffffffffffffffffffffff16036111f95760006040517f64a0ae920000000000000000000000000000000000000000000000000000000081526004016111f091906123d2565b60405180910390fd5b600061120783836000610fe3565b9050600073ffffffffffffffffffffffffffffffffffffffff168173ffffffffffffffffffffffffffffffffffffffff161461127b5760006040517f73c6ac6e00000000000000000000000000000000000000000000000000000000815260040161127291906123d2565b60405180910390fd5b505050565b6060600d61128d83611ec8565b60405160200161129e929190612eec565b6040516020818303038152906040529050919050565b600073ffffffffffffffffffffffffffffffffffffffff166112d5836109c4565b73ffffffffffffffffffffffffffffffffffffffff160361132b576040517f08c379a000000000000000000000000000000000000000000000000000000000815260040161132290612f82565b60405180910390fd5b80600c6000848152602001908152602001600020908161134b9190612cc9565b505050565b6000600a60009054906101000a900473ffffffffffffffffffffffffffffffffffffffff16905081600a60006101000a81548173ffffffffffffffffffffffffffffffffffffffff021916908373ffffffffffffffffffffffffffffffffffffffff1602179055508173ffffffffffffffffffffffffffffffffffffffff168173ffffffffffffffffffffffffffffffffffffffff167f8be0079c531659141344cd1fd0a4f28419497f9722a3daafe3b4186f6b6457e060405160405180910390a35050565b600073ffffffffffffffffffffffffffffffffffffffff168273ffffffffffffffffffffffffffffffffffffffff160361148757816040517f5b08ba1800000000000000000000000000000000000000000000000000000000815260040161147e91906123d2565b60405180910390fd5b80600560008573ffffffffffffffffffffffffffffffffffffffff1673ffffffffffffffffffffffffffffffffffffffff16815260200190815260200160002060008473ffffffffffffffffffffffffffffffffffffffff1673ffffffffffffffffffffffffffffffffffffffff16815260200190815260200160002060006101000a81548160ff0219169083151502179055508173ffffffffffffffffffffffffffffffffffffffff168373ffffffffffffffffffffffffffffffffffffffff167f17307eab39ab6107e8899845ad3d59bd9653f200f220920489ca2b5937696c31836040516115789190612261565b60405180910390a3505050565b60008373ffffffffffffffffffffffffffffffffffffffff163b1115611736578273ffffffffffffffffffffffffffffffffffffffff1663150b7a026115c9610fc9565b8685856040518563ffffffff1660e01b81526004016115eb9493929190612ff7565b6020604051808303816000875af192505050801561162757506040513d601f19601f820116820180604052508101906116249190613058565b60015b6116ab573d8060008114611657576040519150601f19603f3d011682016040523d82523d6000602084013e61165c565b606091505b5060008151036116a357836040517f64a0ae9200000000000000000000000000000000000000000000000000000000815260040161169a91906123d2565b60405180910390fd5b805181602001fd5b63150b7a0260e01b7bffffffffffffffffffffffffffffffffffffffffffffffffffffffff1916817bffffffffffffffffffffffffffffffffffffffffffffffffffffffff19161461173457836040517f64a0ae9200000000000000000000000000000000000000000000000000000000815260040161172b91906123d2565b60405180910390fd5b505b50505050565b60007f01ffc9a7000000000000000000000000000000000000000000000000000000007bffffffffffffffffffffffffffffffffffffffffffffffffffffffff1916827bffffffffffffffffffffffffffffffffffffffffffffffffffffffff1916149050919050565b60006002600083815260200190815260200160002060009054906101000a900473ffffffffffffffffffffffffffffffffffffffff169050919050565b808061181c5750600073ffffffffffffffffffffffffffffffffffffffff168273ffffffffffffffffffffffffffffffffffffffff1614155b1561195057600061182c84610f04565b9050600073ffffffffffffffffffffffffffffffffffffffff168373ffffffffffffffffffffffffffffffffffffffff161415801561189757508273ffffffffffffffffffffffffffffffffffffffff168173ffffffffffffffffffffffffffffffffffffffff1614155b80156118aa57506118a88184610d08565b155b156118ec57826040517fa9fbf51f0000000000000000000000000000000000000000000000000000000081526004016118e391906123d2565b60405180910390fd5b811561194e57838573ffffffffffffffffffffffffffffffffffffffff168273ffffffffffffffffffffffffffffffffffffffff167f8c5be1e5ebec7d5bd14f71427d1e84f3dd0314c0f7b2291e5b200ac8c7c3b92560405160405180910390a45b505b836004600085815260200190815260200160002060006101000a81548173ffffffffffffffffffffffffffffffffffffffff021916908373ffffffffffffffffffffffffffffffffffffffff16021790555050505050565b6000806119b4846117a6565b9050600073ffffffffffffffffffffffffffffffffffffffff168373ffffffffffffffffffffffffffffffffffffffff16146119f6576119f5818486612028565b5b600073ffffffffffffffffffffffffffffffffffffffff168173ffffffffffffffffffffffffffffffffffffffff1614611a8757611a386000856000806117e3565b6001600360008373ffffffffffffffffffffffffffffffffffffffff1673ffffffffffffffffffffffffffffffffffffffff168152602001908152602001600020600082825403925050819055505b600073ffffffffffffffffffffffffffffffffffffffff168573ffffffffffffffffffffffffffffffffffffffff1614611b0a576001600360008773ffffffffffffffffffffffffffffffffffffffff1673ffffffffffffffffffffffffffffffffffffffff168152602001908152602001600020600082825401925050819055505b846002600086815260200190815260200160002060006101000a81548173ffffffffffffffffffffffffffffffffffffffff021916908373ffffffffffffffffffffffffffffffffffffffff160217905550838573ffffffffffffffffffffffffffffffffffffffff168273ffffffffffffffffffffffffffffffffffffffff167fddf252ad1be2c89b69c2b068fc378daa952ba7f163c4a11628f55a4df523b3ef60405160405180910390a4809150509392505050565b6008805490506009600083815260200190815260200160002081905550600881908060018154018082558091505060019003906000526020600020016000909190919091505550565b6000611c1683610a2f565b9050600060076000848152602001908152602001600020549050818114611cfb576000600660008673ffffffffffffffffffffffffffffffffffffffff1673ffffffffffffffffffffffffffffffffffffffff168152602001908152602001600020600084815260200190815260200160002054905080600660008773ffffffffffffffffffffffffffffffffffffffff1673ffffffffffffffffffffffffffffffffffffffff168152602001908152602001600020600084815260200190815260200160002081905550816007600083815260200190815260200160002081905550505b6007600084815260200190815260200160002060009055600660008573ffffffffffffffffffffffffffffffffffffffff1673ffffffffffffffffffffffffffffffffffffffff16815260200190815260200160002060008381526020019081526020016000206000905550505050565b60006001600880549050611d8091906129ac565b9050600060096000848152602001908152602001600020549050600060088381548110611db057611daf612aee565b5b906000526020600020015490508060088381548110611dd257611dd1612aee565b5b906000526020600020018190555081600960008381526020019081526020016000208190555060096000858152602001908152602001600020600090556008805480611e2157611e20613085565b5b6001900381819060005260206000200160009055905550505050565b60006001611e4a84610a2f565b611e5491906129ac565b905081600660008573ffffffffffffffffffffffffffffffffffffffff1673ffffffffffffffffffffffffffffffffffffffff168152602001908152602001600020600083815260200190815260200160002081905550806007600084815260200190815260200160002081905550505050565b606060008203611f0f576040518060400160405280600181526020017f30000000000000000000000000000000000000000000000000000000000000008152509050612023565b600082905060005b60008214611f41578080611f2a906130b4565b915050600a82611f3a9190612a51565b9150611f17565b60008167ffffffffffffffff811115611f5d57611f5c6124e0565b5b6040519080825280601f01601f191660200182016040528015611f8f5781602001600182028036833780820191505090505b5090505b6000851461201c57600182611fa891906129ac565b9150600a85611fb791906130fc565b6030611fc3919061312d565b60f81b818381518110611fd957611fd8612aee565b5b60200101907effffffffffffffffffffffffffffffffffffffffffffffffffffffffffffff1916908160001a905350600a856120159190612a51565b9450611f93565b8093505050505b919050565b6120338383836120ec565b6120e757600073ffffffffffffffffffffffffffffffffffffffff168373ffffffffffffffffffffffffffffffffffffffff16036120a857806040517f7e27328900000000000000000000000000000000000000000000000000000000815260040161209f9190612468565b60405180910390fd5b81816040517f177e802f0000000000000000000000000000000000000000000000000000000081526004016120de9291906128e8565b60405180910390fd5b505050565b60008073ffffffffffffffffffffffffffffffffffffffff168373ffffffffffffffffffffffffffffffffffffffff16141580156121a457508273ffffffffffffffffffffffffffffffffffffffff168473ffffffffffffffffffffffffffffffffffffffff16148061216557506121648484610d08565b5b806121a357508273ffffffffffffffffffffffffffffffffffffffff1661218b83610f8c565b73ffffffffffffffffffffffffffffffffffffffff16145b5b90509392505050565b6000604051905090565b600080fd5b600080fd5b60007fffffffff0000000000000000000000000000000000000000000000000000000082169050919050565b6121f6816121c1565b811461220157600080fd5b50565b600081359050612213816121ed565b92915050565b60006020828403121561222f5761222e6121b7565b5b600061223d84828501612204565b91505092915050565b60008115159050919050565b61225b81612246565b82525050565b60006020820190506122766000830184612252565b92915050565b600081519050919050565b600082825260208201905092915050565b60005b838110156122b657808201518184015260208101905061229b565b60008484015250505050565b6000601f19601f8301169050919050565b60006122de8261227c565b6122e88185612287565b93506122f8818560208601612298565b612301816122c2565b840191505092915050565b6000602082019050818103600083015261232681846122d3565b905092915050565b6000819050919050565b6123418161232e565b811461234c57600080fd5b50565b60008135905061235e81612338565b92915050565b60006020828403121561237a576123796121b7565b5b60006123888482850161234f565b91505092915050565b600073ffffffffffffffffffffffffffffffffffffffff82169050919050565b60006123bc82612391565b9050919050565b6123cc816123b1565b82525050565b60006020820190506123e760008301846123c3565b92915050565b6123f6816123b1565b811461240157600080fd5b50565b600081359050612413816123ed565b92915050565b600080604083850312156124305761242f6121b7565b5b600061243e85828601612404565b925050602061244f8582860161234f565b9150509250929050565b6124628161232e565b82525050565b600060208201905061247d6000830184612459565b92915050565b60008060006060848603121561249c5761249b6121b7565b5b60006124aa86828701612404565b93505060206124bb86828701612404565b92505060406124cc8682870161234f565b9150509250925092565b600080fd5b600080fd5b7f4e487b7100000000000000000000000000000000000000000000000000000000600052604160045260246000fd5b612518826122c2565b810181811067ffffffffffffffff82111715612537576125366124e0565b5b80604052505050565b600061254a6121ad565b9050612556828261250f565b919050565b600067ffffffffffffffff821115612576576125756124e0565b5b61257f826122c2565b9050602081019050919050565b82818337600083830152505050565b60006125ae6125a98461255b565b612540565b9050828152602081018484840111156125ca576125c96124db565b5b6125d584828561258c565b509392505050565b600082601f8301126125f2576125f16124d6565b5b813561260284826020860161259b565b91505092915050565b600060208284031215612621576126206121b7565b5b600082013567ffffffffffffffff81111561263f5761263e6121bc565b5b61264b848285016125dd565b91505092915050565b60006020828403121561266a576126696121b7565b5b600061267884828501612404565b91505092915050565b61268a81612246565b811461269557600080fd5b50565b6000813590506126a781612681565b92915050565b600080604083850312156126c4576126c36121b7565b5b60006126d285828601612404565b92505060206126e385828601612698565b9150509250929050565b600067ffffffffffffffff821115612708576127076124e0565b5b612711826122c2565b9050602081019050919050565b600061273161272c846126ed565b612540565b90508281526020810184848401111561274d5761274c6124db565b5b61275884828561258c565b509392505050565b600082601f830112612775576127746124d6565b5b813561278584826020860161271e565b91505092915050565b600080600080608085870312156127a8576127a76121b7565b5b60006127b687828801612404565b94505060206127c787828801612404565b93505060406127d88782880161234f565b925050606085013567ffffffffffffffff8111156127f9576127f86121bc565b5b61280587828801612760565b91505092959194509250565b60008060408385031215612828576128276121b7565b5b600061283685828601612404565b925050602061284785828601612404565b9150509250929050565b7f4e487b7100000000000000000000000000000000000000000000000000000000600052602260045260246000fd5b6000600282049050600182168061289857607f821691505b6020821081036128ab576128aa612851565b5b50919050565b60006060820190506128c660008301866123c3565b6128d36020830185612459565b6128e060408301846123c3565b949350505050565b60006040820190506128fd60008301856123c3565b61290a6020830184612459565b9392505050565b7f4e6f7420746f6b656e206f776e65720000000000000000000000000000000000600082015250565b6000612947600f83612287565b915061295282612911565b602082019050919050565b600060208201905081810360008301526129768161293a565b9050919050565b7f4e487b7100000000000000000000000000000000000000000000000000000000600052601160045260246000fd5b60006129b78261232e565b91506129c28361232e565b92508282039050818111156129da576129d961297d565b5b92915050565b60006129eb8261232e565b91506129f68361232e565b9250828202612a048161232e565b91508282048414831517612a1b57612a1a61297d565b5b5092915050565b7f4e487b7100000000000000000000000000000000000000000000000000000000600052601260045260246000fd5b6000612a5c8261232e565b9150612a678361232e565b925082612a7757612a76612a22565b5b828204905092915050565b7f4e6f20746f6b656e7320746f20636c61696d0000000000000000000000000000600082015250565b6000612ab8601283612287565b9150612ac382612a82565b602082019050919050565b60006020820190508181036000830152612ae781612aab565b9050919050565b7f4e487b7100000000000000000000000000000000000000000000000000000000600052603260045260246000fd5b60008190508160005260206000209050919050565b60006020601f8301049050919050565b600082821b905092915050565b600060088302612b7f7fffffffffffffffffffffffffffffffffffffffffffffffffffffffffffffffff82612b42565b612b898683612b42565b95508019841693508086168417925050509392505050565b6000819050919050565b6000612bc6612bc1612bbc8461232e565b612ba1565b61232e565b9050919050565b6000819050919050565b612be083612bab565b612bf4612bec82612bcd565b848454612b4f565b825550505050565b600090565b612c09612bfc565b612c14818484612bd7565b505050565b5b81811015612c3857612c2d600082612c01565b600181019050612c1a565b5050565b601f821115612c7d57612c4e81612b1d565b612c5784612b32565b81016020851015612c66578190505b612c7a612c7285612b32565b830182612c19565b50505b505050565b600082821c905092915050565b6000612ca060001984600802612c82565b1980831691505092915050565b6000612cb98383612c8f565b9150826002028217905092915050565b612cd28261227c565b67ffffffffffffffff811115612ceb57612cea6124e0565b5b612cf58254612880565b612d00828285612c3c565b600060209050601f831160018114612d335760008415612d21578287015190505b612d2b8582612cad565b865550612d93565b601f198416612d4186612b1d565b60005b82811015612d6957848901518255600182019150602085019450602081019050612d44565b86831015612d865784890151612d82601f891682612c8f565b8355505b6001600288020188555050505b505050505050565b7f4552433732314d657461646174613a2055524920717565727920666f72206e6f60008201527f6e6578697374656e7420746f6b656e0000000000000000000000000000000000602082015250565b6000612df7602f83612287565b9150612e0282612d9b565b604082019050919050565b60006020820190508181036000830152612e2681612dea565b9050919050565b600081905092915050565b60008154612e4581612880565b612e4f8186612e2d565b94506001821660008114612e6a5760018114612e7f57612eb2565b60ff1983168652811515820286019350612eb2565b612e8885612b1d565b60005b83811015612eaa57815481890152600182019150602081019050612e8b565b838801955050505b50505092915050565b6000612ec68261227c565b612ed08185612e2d565b9350612ee0818560208601612298565b80840191505092915050565b6000612ef88285612e38565b9150612f048284612ebb565b91508190509392505050565b7f4552433732314d657461646174613a2055524920736574206f66206e6f6e657860008201527f697374656e7420746f6b656e0000000000000000000000000000000000000000602082015250565b6000612f6c602c83612287565b9150612f7782612f10565b604082019050919050565b60006020820190508181036000830152612f9b81612f5f565b9050919050565b600081519050919050565b600082825260208201905092915050565b6000612fc982612fa2565b612fd38185612fad565b9350612fe3818560208601612298565b612fec816122c2565b840191505092915050565b600060808201905061300c60008301876123c3565b61301960208301866123c3565b6130266040830185612459565b81810360608301526130388184612fbe565b905095945050505050565b600081519050613052816121ed565b92915050565b60006020828403121561306e5761306d6121b7565b5b600061307c84828501613043565b91505092915050565b7f4e487b7100000000000000000000000000000000000000000000000000000000600052603160045260246000fd5b60006130bf8261232e565b91507fffffffffffffffffffffffffffffffffffffffffffffffffffffffffffffffff82036130f1576130f061297d565b5b600182019050919050565b60006131078261232e565b91506131128361232e565b92508261312257613121612a22565b5b828206905092915050565b60006131388261232e565b91506131438361232e565b925082820190508082111561315b5761315a61297d565b5b9291505056fea264697066735822122064aafb22186d660a402c3f93da378a32686389582e58c7481bf7907d49dd8cf464736f6c63430008140033",
  "linkReferences": {},
  "deployedLinkReferences": {}
}